:1000000033C0000044C0000042C0000040C00000F7
:100010003EC000003CC000003AC0000038C00000F4
:1000200036C0000034C0000032C0000030C0000004
:100030002EC000002CC000002AC0000028C0000014
:1000400026C0000024C0000022C0000020C0000024
:100050001EC000001CC000001AC0000018C0000034
:1000600016C0000014C0000011241FBECFEFD8E05E
:10007000DEBFCDBF11E0A0E0B1E0E6E8FCE002C0E9
:1000800005900D92A230B107D9F71ED5FAC5B8CFA9
:10009000BF92CF92DF92D901E4E3F8E30F921F926F
:1000A000D72EC62EB82E242F1B2E0A2E09952131AD
:1000B000F9F71F900F90DF90CF90BF900895BF92F7
:1000C000CF92DF92D901E4E3FFE30F921F92D72E84
:1000D000C62EB82E242F1B2E0A2E09952131F9F792
:1000E0001F900F90DF90CF90BF900895CF92DF9236
:1000F000EF92FF92CF93DF936B017C01CA01E9017C
:100100002138310510F0C0E8D0E0B701A6014078F1
:100110009E01D1D4CE01DF91CF91FF90EF90DF907F
:10012000CF9008952F923F924F925F926F927F925D
:100130008F929F92AF92BF92CF92DF92EF92FF92F7
:100140000F931F93CF93DF934B015C011801E901DB
:100150002138310510F0C0E8D0E06E01D694C79484
:1001600080E8882294018A01DA0180E090E0F12C95
:10017000E12C8C159D0571F5E11409F454C0F114BE
:1001800039F020E030E043E0C501B401F101099508
:1001900024013501E12CF12CEC14FD0491F520E053
:1001A00030E045E0C501B401F1010995CE01DF91D0
:1001B000CF911F910F91FF90EF90DF90CF90BF9064
:1001C000AF909F908F907F906F905F904F903F90F7
:1001D0002F900895F901459154916D917D91641787
:1001E000750711F0EE24E39460957095642B752BE0
:1001F0006F3F7F4F11F0FF24F39401962E5F3F4F26
:10020000B8CFF801219131918F0141E0C301B201D2
:10021000F1010995F2E04F0E511C611C711C4FEF6A
:10022000E41AF40AB9CFC0E0D0E0C0CF6BC0000040
:10023000AAC000008EC000008CC000008AC0000070
:1002400088C0000086C0000084C0000082C000009A
:1002500080C000007EC000007CC000007AC00000AA
:1002600078C0000076C0000074C0000072C00000BA
:1002700070C000006EC000006CC000006AC00000CA
:1002800068C0000066C0000064C0000062C00000DA
:1002900060C00000EC2DFD2DB7B6B0FCFDCF27BF30
:1002A000E895B7B6B0FCFDCF21E1B7B6B6FCF4CF08
:1002B00008950902120001010080320904000000C3
:1002C0000000000012011001FF000008C016DC054C
:1002D0000201010200010E035500530042006100BB
:1002E000730070001C037700770077002E00660013
:1002F00069007300630068006C002E0064006500F4
:100300000403090411241FBECFEFD8E0DEBFCDBF28
:1003100024B7D8E0CEEF39913833399109F03FEF67
:1003200030933C0120933B0111E0A0E0B1E0E4E810
:10033000F8E702C005900D92A630B107D9F721E089
:10034000A6E0B1E001C01D92AB33B207E1F77CD16A
:10035000ADC36CCFA82FB92F80E090E041E050EA08
:10036000609530E009C02D9182279795879510F010
:1003700084279527305EC8F36F5FA8F30895EADFFE
:100380008D939D930895CF93CFB7CF93DF93C3956C
:100390004B9BE9F74B9B0BC04B9B09C04B9B07C08A
:1003A0004B9B05C04B9B03C04B9B01C089C06F9307
:1003B000C0911901DD27C65EDE4F2F9365E54B9B8B
:1003C00003C02F916F91E6CF0F931F934F9320E0BF
:1003D00040E15F9309B10C7003FB27F93F9350E0B4
:1003E0003BE039C01C7040642F77012F5F5F1EC057
:1003F000406819B11C702F7752501FC0406409B17A
:100400002F770C70D1F15F5F00C023C0406219B13B
:100410002F771C7091F15F5F00C025C00C70102712
:10042000515012F45D5F0000115027952C3F19B117
:10043000C8F61C700127015027952C3FC8F64227AB
:10044000499309B10C7010274F73115027952C3F19
:10045000A8F64695469519B11C7079F00127015010
:1004600027952C3F98F66B5A60F3315009B1B0F6DE
:1004700000C011E01CBB002717C03B503195C31BC7
:10048000D04011E01CBB0881033CF9F00B34E9F0CB
:10049000209118011981110F1213EDCF093651F176
:1004A0000D3211F0013E39F7009314013F915F9135
:1004B0004F911F910F912F916F91CCB3C0FD67CFDA
:1004C000DF91CF91CFBFCF911895209114012223B6
:1004D00069F310911501112339F534303AF1309355
:1004E000150120931301109119013BE0311B30934A
:1004F00019011CC0009115010130B4F40AE53091D6
:10050000010134FD14C000930101C8E0D1E013C023
:10051000052710E000C000000BB91AC0052710E045
:10052000221F1DC010E021C04AE502C032ED432F5A
:10053000C4E1D0E032E01AB11C605B9A0BB11AB989
:100540005CE020E865E320FF05270BB927951795A8
:100550001C3FF0F66695B8F7B1F720FF05270BB9F9
:10056000279517951C3FD0F62795179517FF052758
:1005700000001C3F0BB9B0F629913A9519F7037F9B
:1005800010911701110FC651D0400BB911F0109303
:10059000180111E01CBB08601AB1137F402F437F84
:1005A00054E05A95F1F70BB91AB94BB97FCFFC015A
:1005B00043813481838194819827892798272281D8
:1005C000203339F43370E32FF0E0EE5FFE4F80818B
:1005D0000895283561F489E0E1E0F0E0411571F01B
:1005E00089E0E3E0F0E0483049F080E0089520350C
:1005F00079F4411107C089E0E0E0F0E08093570012
:1006000084910895483089F789E0E2E0F0E0F6CF80
:10061000203229F4880F991FFC0184910895283213
:1006200029F4880F991FFC013196F7CF203A09F47D
:1006300027C2203C19F465812BD2D7CF2F3FA9F6D2
:1006400081EF80933901D1CF1AB880E18BB981E075
:1006500085BF82E085BFE0E0F1E7A8953197804053
:10066000E1F780913B01877F811104C080913C01BB
:10067000811571F04C9B0CC0F894539A1BB81DBAAD
:100680001092690081E085BF15BEE0E0F0E00995B9
:100690008EEF8093390114BE0FB6F894A89580911F
:1006A0006000886180936000109260000FBE8091AE
:1006B0006900826080936900E89A539A8CE0E0E0D8
:1006C000F5E3A89531978040E1F75398789410911D
:1006D0001501135017FD5AC080911901CCE0D0E0EC
:1006E000C81BD109C65EDE4F809113018D3209F01F
:1006F0000DC1183009F048C083EC809308018AE5E9
:100700008093010110923A013881832F807699817C
:10071000811509F49DC040E351E0509307014093D7
:100720000601933069F4CE0142DF8093330184E007
:100730009F81911127C09E81981720F5892F22C093
:10074000953009F4E1C09A3009F4DEC08CEF890FCE
:10075000863008F072C04A815B8150933801409323
:100760003701993009F470C08E81809336012D8154
:100770002270209335019093340137FF8FEF90E87A
:1007800090933A018093000110921501809101012C
:1007900084FF37C0C0910001CF3F99F18C2FC93041
:1007A00008F088E09C2F981B90930001909108011D
:1007B00028E8922790930801C115B1F030913A01D1
:1007C00037FF2FC190913601C82F981708F4C92F11
:1007D0009C1B90933601D0903401D0E089E0E82E44
:1007E00081E0F82ECD1306C16C2F89E091E0C7DDC2
:1007F00084E08C0FC83019F09FEF90930001809334
:10080000010184E199B19C70911106C08A95D1F7DC
:10081000109217011092180180913901803108F46B
:1008200024C14C9B05C080913901805180933901CE
:100830008091390181114BCF1FCF809139019230C6
:1008400029F48E7F8093390180E072CF8160FACFE6
:100850002A811092110191110AC01092120121E116
:1008600031E082E0309307012093060161CF95309B
:1008700029F42093170121E131E0F4CF963099F566
:100880009B81913059F488E990E790930701809318
:10089000060182E190E490933A014ACF923019F434
:1008A00086E890E7F2CF9330A9F7211108C084EDD4
:1008B00090E7909307018093060184E0EBCF21300D
:1008C00041F488EB90E790930701809306018CE157
:1008D000E1CF2230F9F68AEA90E7909307018093FE
:1008E00006018EE0D7CF983059F0993019F4209353
:1008F0001601C1CF81E09A3009F4BDCF80E0BBCFB3
:1009000026E131E081E0AECF81E012CF80913A0163
:1009100087FF3ACF00913601011708F4102F011B11
:1009200000933601F12CF11628F001112DCF109211
:1009300000012ACF80913701909138012091340134
:10094000273058F069919C012F5F3F4F3093380159
:10095000209337019DD0F394E6CF8115904738F767
:10096000F394F394F894E0913701F09138012881E1
:10097000398181E0090180935700E895112478942A
:1009800080913701909138010296909338018093BD
:1009900037018F779927892B51F0011102C0F11689
:1009A00010F42296C0CF809135018115D1F3F894CF
:1009B000E0913701F0913801329783E0809357003E
:1009C000E895789407B600FCFDCFF894E0913701E4
:1009D000F0913801329785E080935700E89578943C
:1009E00007B600FCFDCFF89481E180935700E895AD
:1009F0007894D7CF009137011091380127E0D216B3
:100A000068F0C8013DD0F70181937F010F5F1F4F50
:100A10001093380100933701DF5FE4CEF801849131
:100A2000F2CF9091060120910701482F490FE92F3D
:100A3000F22F36FF10C029E031E09491D9019C9348
:100A40002F5F3F4F31964E13F8CFF0930701E0939D
:100A50000601C82FC9CE29E031E0D90191919C93BC
:100A60002F5F3F4F4E13F9CFF0CF4C99E1CE8091DD
:100A70003901823008F4DCCE809139018250D6CE23
:100A8000F999FECF92BD81BDF89A992780B5089556
:100A9000262FF999FECF1FBA92BD81BD20BD0FB69A
:100AA000F894FA9AF99A0FBE01960895F894FFCF38
:100AB000FF5A1E950F00FA01DC0102C005900D924D
:100AC00021503040D8F70895CDB7DEB7C058D109CE
:100AD0000FB6F894DEBF0FBECDBF14BE0FB6F894AC
:100AE000A8958091600088618093600010926000FA
:100AF0000FBEF8944091000150910101FA01259137
:100B00003491E0E0F0E7859194912817390701F5D9
:100B100020E030E0C9012E5F3F4F2A3868E03607F9
:100B200051F480E090E0C058DF4F0FB6F894DEBF7C
:100B30000FBECDBF0895F901E40FF51F65917491C3
:100B4000FC01EE5FFF48859194916817790711F3D6
:100B500081E0898338E6832E30E7932EA12CB12CD7
:100B6000B501A401407820E830E0CE0101967C0177
:100B7000A2DFC501B4016856724F8F4F9F4F08E442
:100B800010E020E830E0A701CDDA90E8890E911C52
:100B9000A11CB11C68E6861662E79606A104B104A2
:100BA000F9F6812C20E7922EA12CB12C40E850E0E0
:100BB0006FEF70E0C7015ED0C40190574091000113
:100BC00050910101480F591F052E000C660B770B41
:100BD00020E830E0C7016FDF0FE510E020E830E0EB
:100BE000A701C501B4019EDA80E8880E911CA11C02
:100BF000B11C811493E79906A104B104B9F680E809
:100C0000882E82E7982EA12CB12C90E8C92E92E074
:100C1000D92E40E850E06FEF70E0C7012BD02AE8F2
:100C200038E02C193D092138310510F020E830E07A
:100C300040910001509101014C0D5D1D052E000CED
:100C4000660B770BC70137DF08E410E020E830E0DF
:100C5000A701C501B40166DA60E8C60ED11C80E8C0
:100C6000880E911CA11CB11C9AE8C91698E0D906FF
:100C700080F257CFDC0101C06D9341505040E0F746
:060C80000895F894FFCF77
:020C86002C023E
:00000001FF
