:100000000C94D1020C94EE020C9409030C94EE02B1
:100010000C94EE020C94EE020C943F1F0C94EE0232
:100020000C94EE020C94EE020C94EE020C94EE0290
:100030000C94EE020C94EE020C941B1F0C94EE0236
:100040000C94EE020C94EE020C94EE020C94EE0270
:100050000C94EE020C94EE020C94EE020C94EE0260
:100060000C94EE020C94EE02643214783C1E1E14C2
:100070000A05FD377A585A000004E6D6B446020055
:10008000210116000000742FE5A3E000C7009D5D6C
:10009000003D8889C65436C3174FE4E046503F46BA
:1000A0003D4256684437AAF389AD08963EAAFC6AD9
:1000B000A952FF14D8E4CEDF1D8FE206713B0AB8C7
:1000C000E0002F07193F00F0F221AB6D755AC4080C
:1000D0005F05F06F79B7ABB2A283540770E6B15FEA
:1000E00076A42A4A5D0D8515336E84C8BD77908B42
:1000F000EE698152574F536288E0F68899BDE0D18E
:1001000004EAEC50202C79A63763E6015FECFED4BC
:10011000571CF07D003ACF1A520C7AFBB664CE37EA
:1001200016AB9905D85AA2CD12DDAB8FB5AC000045
:1001300000005B5C4C3C4FEAB8E10001B901C8012A
:1001400000000E13CB71B1C467FB02000000000475
:10015000595A0001010101010101010102020202DB
:100160000202020202030303030303030304040461
:10017000040404040505050505060606060607072A
:1001800007070708080808090909090A0A0A0B0BE2
:100190000B0C0C0C0D0D0D0E0E0E0F0F0F10101181
:1001A0001111121213131414151516161717181807
:1001B00019191A1A1B1B1C1D1D1E1E1F202021226F
:1001C00022232424252626272829292A2B2C2D2DB5
:1001D0002E2F30313232333435363738393A3B3CD2
:1001E0003D3E3F404142434445464748494A4C4DC5
:1001F0004E4F50515354555658595A5B5D5E5F618E
:100200006264656668696B6C6D6F70727375777820
:100210007A7B7D7E8082838587888A8C8E8F91937E
:100220009596989A9C9EA0A2A3A5A7A9ABADAFB1A5
:10023000B3B5B7BABCBEC0C2C4C6C9CBCDCFD1D48A
:10024000D6D8DBDDDFE2E4E7E9EBEEF0F3F5F8FA30
:10025000FDFFFFAA7F55402223252628292A2C2D81
:100260002F3032333536383A3B3D3E4042434547E6
:10027000494A4C4E5051535557595A5C5E6062641E
:100280006668696B6D6F71737577797B7D7F81832C
:100290008587898A8C8E90929496989A9C9E9FA12D
:1002A000A3A5A7A8AAACAEAFB1B3B4B6B8B9BBBC4E
:1002B000BEBFC1C2C3C5C6C7C9CACBCCCDCED0D1C3
:1002C000D2D2D3D4D5D6D7D7D8D9D9DADADBDBDBBB
:1002D000DCDCDCDCDCDDDDDDDDDCDCDCDCDCDBDB5C
:1002E000DBDADAD9D9D8D7D7D6D5D4D3D2D2D1D0B0
:1002F000CECDCCCBCAC9C7C6C5C3C2C1BFBEBCBBAD
:10030000B9B8B6B4B3B1AFAEACAAA8A7A5A3A19F24
:100310009E9C9A98969492908E8C8A8987858381E8
:100320007F7D7B79777573716F6D6B6968666462C9
:10033000605E5C5A5957555351504E4C4A49474597
:100340004342403E3D3B3A3836353332302F2D2C38
:100350002A292826252322280005010902A1018532
:10036000020901A1000509190129081500250195B7
:1003700008750181020501093009311581257F9534
:10038000027508810609381581257F950175088158
:1003900006050C0A38021581257F9501750881062E
:1003A000C0C005010980A101850319012AB7001504
:1003B0000126B700950175108100C0050C0901A147
:1003C00001850419012AA002150126A002950175D4
:1003D000108100C00660FF0961A1010962150026B5
:1003E000FF009520750881020963150026FF00951E
:1003F0002075089102C005010906A101050719E051
:1004000029E71500250195087501810295017508F8
:1004100081030507190029FF150026FF00950675C1
:1004200008810005081901290515002501950575A4
:10043000019102950175039103C01C0376006900C8
:1004400061006C003A006600360034006300320040
:1004500062003300630000001403490053004F00A2
:100460006C006100740069006F006E0000001003F2
:100470006B0062002D0065006C006D006F000000D5
:100480000403090409025B00030100A0FA09040047
:1004900000010301010009210101000122440007BC
:1004A000058103080001090401000203000000099E
:1004B0002101010001222200070584030800010731
:1004C00005040308000109040200010300000009FB
:1004D0002101010001227B000705830308000112AE
:1004E000011001000000088CA6E64E010001020385
:1004F00001000000000000000000000000000000FB
:1005000000000000000000000000000000000000EB
:1005100000000000007E0F00D4FFFFFFC7000000B6
:100520007800000000000000002A2B2800000000D6
:100530000000000000000000000000002900000092
:10054000002C1E3420212224342627252E362D3738
:1005500038271E1F202122232425263333362E3709
:10056000381F0405060708090A0B0C0D0E0F1011A1
:1005700012131415161718191A1B1C1D2F313023AE
:100580002D350405060708090A0B0C0D0E0F101176
:1005900012131415161718191A1B1C1D2F3130357C
:1005A0004C0011241FBECFEFD8E0DEBFCDBF23E04B
:1005B000A4E7B1E001C01D92AE32B207E1F711E04D
:1005C000A0E0B1E0EEECFEE402C005900D92A4378D
:1005D000B107D9F70E94661F0C940D270C940000F8
:1005E000A82FB92F80E090E041E050EA609530E01C
:1005F00009C02D9182279795879510F0842795271C
:10060000305EC8F36F5FA8F30895EADF8D939D9382
:100610000895CF93CFB7CF93DF93C3954B9BE9F763
:100620004B9B10C04B9B0EC04B9B0CC04B9B0AC0FE
:100630004B9B08C04B9B06C0C0910803C395C09359
:1006400008038EC06F93C0910703DD27C45FDC4FA2
:100650002F9365E54B9B03C02F916F91E1CF0F93D3
:100660001F934F9320E040E15F9309B10C7003FBAF
:1006700027F93F9350E03BE039C01C7040642F776E
:10068000012F5F5F1EC0406819B11C702F77525058
:100690001FC0406409B12F770C70D1F15F5F00C0BB
:1006A00023C0406219B12F771C7091F15F5F00C0C9
:1006B00025C00C701027515012F45D5F00001150DE
:1006C00027952C3F19B1C8F61C70012701502795BA
:1006D0002C3FC8F64227499309B10C7010274F737D
:1006E000115027952C3FA8F64695469519B11C70D8
:1006F00079F00127015027952C3F98F66B5A60F34B
:10070000315009B1B0F600C012E01CBB00271CC07C
:100710003B503195C31BD04012E01CBB0881033C09
:1007200021F10B3411F1209105031981110F1213DE
:10073000EDCF4A81441F093679F10D3211F0013EA7
:1007400029F74F7009F0042F00930B033F915F913D
:100750004F911F910F912F916F91CCB3C1FD5DCF40
:10076000DF91CF91CFBFCF91189520910B0322231A
:1007700069F310910903112309F049C034300AF4D8
:1007800048C03093090320930603109107033BE010
:10079000311B309307033DC0009109030130BCF5C4
:1007A0000AE54F7049F43091190134FD33C00093CC
:1007B0001901C2EED2E032C0433059F0443091F01A
:1007C0003091ED0234FD26C00093ED02CEEED2E072
:1007D00025C03091220334FD1DC000932203C3E2E3
:1007E000D3E01CC03091F90234FD14C00093F9022B
:1007F000CAEFD2E013C0052710E000C000000BB91B
:100800001AC0052710E0221F1DC010E021C04AE5D4
:1008100002C032ED432FC4E1D0E032E01AB11C60D7
:100820005B9A0BB11AB95CE020E865E320FF05276D
:100830000BB9279517951C3FF0F66695B8F7B1F7F9
:1008400020FF05270BB9279517951C3FD0F6279554
:10085000179517FF052700001C3F0BB9B0F629912B
:100860003A9519F7037F10910A03110FC651D04032
:100870000BB911F01093050312E01CBB08601AB10C
:10088000137F402F437F54E05A95F1F70BB91AB903
:100890004BB95CCF482F2091E1029091A80257E01C
:1008A000291302C080E0089530E0529FF001539F69
:1008B000F00D1124E755FD4F8181681306C080813A
:1008C000481303C085818111EECF2F5F3F4F277002
:1008D000E7CFFC018381833089F130F48130F1F07E
:1008E000823021F180E00895813209F450C08232D3
:1008F000C9F7248135812130310509F468C02115FB
:10090000310509F45CC02230310561F789E593E0D7
:100910009093A7028093A6028BE708958FED94E051
:100920009093A7028093A60282E1089584E894E060
:100930009093A7028093A6028BE50895828181306F
:10094000B1F0882361F08230D1F0833059F68AE328
:1009500094E09093A7028093A6028CE1089580E82A
:1009600094E09093A7028093A60284E008958EE617
:1009700094E09093A7028093A60280E1089588E511
:1009800094E09093A7028093A60284E10895848165
:1009900095818130910581F0009731F0029709F03F
:1009A000A1CF8FEC94E002C086E994E09093A70277
:1009B0008093A60289E008958FEA94E0F7CF86EF4E
:1009C00093E09093A7028093A60284E4089524ED17
:1009D00033E03093A7022093A60208950895089566
:1009E0008091A102089588E198E00FB6F894A89547
:1009F000809360000FBE90936000A895F894D8E0B3
:100A0000CEEF28E3299320E0299314BEFFCF089569
:100A10009C014FB7F8948091720290917302A0915B
:100A20007402B09175024FBF821B930B08952FB7CC
:100A3000F8948091720290917302A0917402B09127
:100A400075022FBF08959C01FC0132969FEF80E054
:100A50004191461751F09F3F19F4411101C0982F61
:100A60008F5F8630A9F79F3F09F40895290F311D44
:100A700097FD3A95F90162830895A3E0B0E0E3E4BD
:100A8000F5E00C942326209162023091630228172E
:100A90003907A1F09093630280936202E0916002B3
:100AA000F0916102309751F024E029839B838A837F
:100AB0000084F185E02DCE01019609952396E2E0B0
:100AC0000C943F26A3E0B0E0E8E6F5E00C94232682
:100AD00020915E0230915F0228173907A1F09093B0
:100AE0005F0280935E02E0916002F09161023097B4
:100AF00051F023E029839B838A830084F185E02DD4
:100B0000CE01019609952396E2E00C943F26E091F0
:100B10006002F0916102309729F00190F081E02DA0
:100B20000995089580E008954115510511F0FA01E5
:100B3000099508950E9417059C0190915302809198
:100B40005402982B21F03093500220934F02909141
:100B5000550280915602982B21F030934E0220933B
:100B60004D02E0916002F0916102309749F082E01D
:100B7000809351020680F781E02D81E592E009958E
:100B8000089580914C0280FD16C081FD16C082FD43
:100B900016C080914B028823A1F0883280F428E0AF
:100BA000829FC001112468E270E00E94F225862F26
:100BB000672B39F0089582E0089584E0089588E075
:100BC000089581E0089580914C0280FD14C081FD5C
:100BD00014C082FD16C080914A02882381F08E31B4
:100BE00080F420E5829FC00111246EE170E00E9434
:100BF000F225862F089584E1089588E2089588E01B
:100C0000089580E50895282F35EB2303C0011124B2
:100C100097FF04C080589109892F089580589F4FED
:100C2000FBCFEAECF1E090E080E06AEB7DE141EEA1
:100C30005DE129E23DE17783668351874087338711
:100C4000228797878687019670968830910599F755
:100C50000895FA01811101C0FB0109950895809161
:100C60006702982F9C7F29F48370846080936702C9
:100C700008958436E8F383708066F8CFAF92BF9210
:100C8000DF92EF92FF920F931F93CF93DF93082F82
:100C9000162FE901E42FF0E0EE5AFE4F611110C06B
:100CA000E4915E2F4E2F4983E8835A83DF91CF91E1
:100CB0001F910F91FF90EF90DF90BF90AF9008953C
:100CC000E62EF12C4491D42EE42FF0E026E0829F12
:100CD000C00111242FEF30E0B9010E94DE25802FE2
:100CE00090E0880F991F55E5569FD001579FB00D92
:100CF00011248A1B9B0B982F990F890F5901AE184D
:100D0000BF08AE9ED001AF9EB00DBE9EB00D1124A7
:100D10005B2F189F80011124012F11275901A01A60
:100D2000B10AAE9E8001AF9E100DBE9E100D112423
:100D30005901A81AB108AE9CC001AF9C900DBE9C91
:100D4000900D1124892F9927281B390B2E9FC00144
:100D50002F9F900D3E9F900D1124E92F6230710559
:100D6000A1F050F46115710509F49DCF6130710552
:100D700081F0EB2F512F97CF6430710569F080F02F
:100D80006630710509F48FCFF4CFE42F4B2F592F24
:100D90008ACFE42F412F87CFEB2F542F492F83CFBA
:100DA0004B2F5D2DE12F7FCF80E00895909198012A
:100DB00092FF10C041E0282F2471243009F040E058
:100DC00031E0282F2871283009F030E0431711F066
:100DD0002CE0822793FF10C041E0282F247124319A
:100DE00009F040E031E0282F2871283109F030E087
:100DF000431711F02CE082273091990130FF10C089
:100E000051E0282F2171213009F050E041E0282FD6
:100E10002871283009F040E0541711F029E08227AA
:100E200031FF10C041E0282F2171213109F040E04D
:100E300031E0282F2871283109F030E0431711F0F4
:100E400029E0822794FD877E089582389105B9F1C3
:100E5000B0F48133910509F47DC048F489329105DD
:100E600009F46DC08A32910509F47BC00895853379
:100E7000910509F45FC08933910509F10895833E16
:100E80009105D9F138F4803E910529F1823E910512
:100E900079F10895863E9105D9F1873E910509F4CF
:100EA0003EC0843E910541F52091990121FF24C067
:100EB0008091980184FD19C087EE90E008952091FB
:100EC0009801237009F05AC02091990123FF14C0A2
:100ED00089E290E008952091980120FD38C030917A
:100EE000990130FF09C024FF43C090E080E00895DD
:100EF0002091980122FDF7CF08952091980122FDBD
:100F00003AC03091990130FD39C024FFF5CFEDCFC3
:100F10002091980123FFF0CF24FDE7CFCDCF209182
:100F2000980123FD2EC03091990131FFEECF84EE60
:100F300090E008952091980125FFDECFC9CF209140
:100F4000980125FD21C02091990123FFD5CF89E388
:100F500090E0D2CF2091980126FFCECF8AE290E098
:100F600008952091980126FFC7CF81E390E008956E
:100F700083EE90E0089582EE90E0089580EE90E098
:100F8000089586EE90E0089585E390E008951F931C
:100F9000CF93DF930E942507EC01C11580E5D807A8
:100FA000F0F5C11580E4D80708F09CC0C03ED1051B
:100FB00020F5CD3CD10508F082C0C83AD10578F4BF
:100FC000C53AD10508F073C0C130D10519F1209799
:100FD00009F1C430D105F0F4D0E0C0E01BC0C33C3F
:100FE000D105D0F7C85AD0E0CC0FDD1FCB5DDE4F66
:100FF0000990D881C02DD4640DC0C11580E2D807F6
:1010000008F0D1C0C11581E0D80708F05AC0C83E29
:10101000D10510F7CE01DF91CF911F910895C03611
:1010200082E5D80718F5C03482E5D80708F06BC010
:10103000C03282E5D80708F05FC0C11582E5D80745
:1010400008F497C02C2F2695269580E2289F9001C2
:1010500011248C2F8370C1E0D0E002C0CC0FDD1FC3
:101060008A95E2F7C22BD32BDD68D4CFC03A82E554
:10107000D80760F4C03882E5D80708F459C0CF71AA
:10108000D0E0DC2FCC27C46FD06AC4CFC03C82E54F
:10109000D80708F462C0C03E82E5D80708F09CCFAC
:1010A000DC2FCC27CC27DF71C06FD06AB3CFC55AF5
:1010B000D0E0CE5DDE4FC881D0E0D064ABCFD0654C
:1010C000A9CF8D2F0E94D606182FCE0199270E94F6
:1010D0002507C12FD0E0DC2FCC27CC27DF71C82B10
:1010E000D92B98CFCE0199270E942507CC27DF70F6
:1010F000C82BD92BD06A8ECFCF71D0E0DC2FCC2774
:10110000C16FD06A87CF2C2F26952695277080E255
:10111000289F900111248C2F8370C1E0D0E002C081
:10112000CC0FDD1F8A95E2F7C22BD32BDC6872CF80
:101130002C2F26952695277080E2289F9001112458
:101140008C2F8370C1E0D0E002C0CC0FDD1F8A95E8
:10115000E2F7C22BD32BDA685DCF8C2F8F710E9400
:10116000D606C82FD0E0DC2FCC27CC27DF71D06289
:1011700051CF8C2F8F710E94D60655E0D695C7951A
:101180005A95E1F7CF70D0E0DC2FCC27282F30E044
:1011900084FF05C044E0220F331F4A95E1F7C22BBC
:1011A000D32BD06937CF8D2F8F710E94D606182F81
:1011B000CE0199270E942507C12FD0E0DC2FCC2734
:1011C000CC27DF71C82BD92BD2CF80918F018823F8
:1011D00031F010928F0110928E0110928D010895BE
:1011E00090918F01292F282361F080958923809386
:1011F0008F01882339F00E94170590938E01809308
:101200008D01089590E080E0F8CF809590915A028A
:10121000982390935A020895809590915B029823A9
:1012200090935B020895CF93C0915B0280915A0224
:10123000C82B80918F018823F9F00E941705209117
:101240008D0130918E01821B930B8838934110F0F1
:101250000E94E50880918F01C82B20E088E791E08B
:10126000FC013191CF0131112F5FF1E08E379F07E3
:10127000B9F721110E94E508C0937601E091600260
:10128000F0916102309731F00280F381E02D86E722
:1012900091E00995CF910895CF93DF93EC014A85B2
:1012A0005B856E857F850E9494058B810E94050970
:1012B0008C810E940C090E94130986E0FE011192A4
:1012C0008A95E9F7DF91CF910895CF93DF93EC01F1
:1012D0008D8181FD17C082608D8380915A029B8130
:1012E000892B80935A0280915B029C81892B809389
:1012F0005B020E941309488559856E857F85CE0162
:101300000E94940510925D0210925C028D8180FD16
:1013100003C0CE010E944C09DF91CF910895109235
:101320008C0110928B0110928A010895909189018D
:10133000292F282321F080958923809389010895FE
:101340008091E1029091A802981301C008958F5FE7
:101350008770FACF892BB1F480918001482F4170BA
:1013600050E0440F551F80917F018170842B909134
:101370008101292F217030E0220F331F220F331FEC
:10138000822B089580E00895892BB1F4EFE7F1E016
:1013900090E080E070E02191DF011197AB01082E11
:1013A00002C0569547950A94E2F740FB20F92C932A
:1013B00001968330910579F70895809397010895F8
:1013C0009091970121E030E0F90101C0EE0F8A957C
:1013D000EAF7D90102C0AA0FBB1F6A95E2F7EA2B10
:1013E00001C0220F4A95EAF7892F8E23E81305C022
:1013F000292B822F0E94DD09089520952923F9CFFA
:1014000021E030E001C0220F8A95EAF72095809113
:10141000970182230E94DD09089590918C018095A7
:10142000892380938C01282F277069F4891759F03C
:101430009091990192FF07C08695869586950E94A6
:10144000000A0E948F09089521E030E001C0220FB8
:101450008A95EAF780919701822B0E94DD09089511
:101460009091990192FF10C098E0899F90011124FA
:10147000622B60938C010E94240A0E9417059093AE
:101480008B0180938A0108950E94240A0895809315
:1014900090010895882321F00E9405090E941309F4
:1014A0000895882339F090915A02982B90935A020C
:1014B0000E9413090895882321F00E940C090E94BC
:1014C00013090895882339F090915B02982B90932B
:1014D0005B020E94130908954091530290915502B6
:1014E00020915602662309F469C0942B922B209117
:1014F0005402922B31F098E090934A0291E090933D
:101500004B028D3C41F40E94E30581958093540287
:101510000E949A0508958E3C19F40E94E305F6CFC7
:101520008F3C31F40E94E305819580935302F0CF04
:10153000803D19F40E94E305F8CF893D29F40E940B
:10154000C10580935502E4CF8A3D21F40E94C10574
:101550008195F7CF8B3D31F40E94C1058195809331
:101560005602D6CF8C3D19F40E94C105F8CF9FE2F8
:10157000980F983070F4815D990B21E030E001C044
:10158000220F8A95EAF780915202822B80935202B1
:10159000BFCF8D3D31F480914C02816080934C022D
:1015A000B7CF8E3D21F480914C028260F7CF8F3D02
:1015B00009F0AECF80914C028460F0CF8D3C59F49D
:1015C0008091540287FF0DC01092540241110BC04C
:1015D00010924A0208C08E3C81F480915402181681
:1015E0009CF3442381F08091550290915602892BFF
:1015F00009F08ECF10924B028BCF8F3C49F447FFFE
:10160000F0CF10925302809154028111ECCFE0CFC1
:10161000803D19F41416ACF3E4CF893D29F4191672
:1016200004F710925502DDCF8A3D19F497FFD9CF08
:10163000F8CF8B3D29F427FFD4CF10925602D1CF9B
:101640008C3D19F41216CCF3CCCF9FE2980F983052
:1016500090F4815D990B21E030E0B90102C0660F82
:10166000771F8A95E2F7CB018095909152028923EA
:1016700080935202B6CF8D3D31F480914C028E7F23
:1016800080934C02AECF8E3D21F480914C028D7F31
:10169000F7CF8F3D09F0A5CF80914C028B7FF0CF23
:1016A0008823D1F19CEF980F913A78F4E8E7F1E0C4
:1016B0009191891303C0DF0111971C9291E0EE37DD
:1016C000F907B1F70E941309089590E2980F983036
:1016D00050F4877091E001C0990F8A95EAF7892F3D
:1016E0000E940C09EFCF9BE5980F933028F490E00F
:1016F00080E00E946205089598E5980F9B3128F4D8
:1017000090E080E00E943D05089593E3980F9331A7
:1017100018F460E00E946C0A0895CF93C82F8823C4
:10172000B1F08CEF8C0F813A00F5E8E7F1E08EE73D
:1017300091E0DF012D91C21761F08A179B07D1F765
:101740006C2F86E791E00E9423050E941309CF9138
:1017500008952191C21303C0DF0111971C928E17C7
:101760009F07B9F70E941309EBCF80E28C0F8830F6
:1017700068F4C77021E030E001C0220FCA95EAF793
:1017800080915B02822B80935B02DFCFEBE5EC0F55
:10179000E33040F4F0E0EE5DFE4F808190E00E9487
:1017A0006205D5CFE8E5EC0FEB3150F4F0E0EE0F39
:1017B000FF1FEB5DFE4F808191810E943D05C7CFE9
:1017C00083E38C0F833118F661E08C2F0E946C0A42
:1017D000BECF9C013A9521153F4150F5FC01EE2703
:1017E000F170BC0166277270AC01442754709C01F3
:1017F0002227387094FF0EC080E1EF2B09F480E0BF
:10180000672B09F08062452B09F08064232B89F057
:101810008068089581E0EF2B09F480E0672B09F0E0
:101820008260452B09F08460232B19F088600895AD
:1018300080E008958091670280FD12C01092AE0191
:101840001092AD011092AF011092B1011092B0014F
:101850001092B2011092B4011092B3011092B5012E
:10186000229A35B13B7F25B124604FB7F8948DEAB9
:1018700091E0FC015191CF0168E025B9000000C062
:1018800057FF35B9550F000000C000C000C035B982
:1018900000C06A9591F7F1E0863B9F0751F74FBF73
:1018A0008FE594E00197F1F700C000000895809162
:1018B0007102882309F438C01092650280916F028A
:1018C00081110EC081E080936F0280916702982F92
:1018D0009170909366028E7F809367020E941A0C2B
:1018E0001092700288E190E020E40FB6F894A89579
:1018F000809360000FBE2093600083B7817F846077
:1019000083BF83B7816083BF7894889583B78E7FC8
:1019100083BF0FB6F894A89580916000886180938A
:101920006000109260000FBE0895EF92FF921F9327
:10193000CF93DF93EC018DEAE82E81E0F82E10E0E2
:101940008C81970140916A0260916902810F0E9427
:101950003E061B5A83E0E80EF11C1F3F89F70E94E8
:101960001A0C9A818C8190FF08C08F5F8C83DF9165
:10197000CF911F91FF90EF9008958150F7CF9091F4
:10198000670290FF14C08093AE016093AD01409355
:10199000AF018093B1016093B0014093B201809395
:1019A000B4016093B3014093B5010E941A0C0895ED
:1019B000A3E0B0E0EEEDFCE00C94232690916702EA
:1019C00090FF0AC09E012F5F3F4F0E943E064B8151
:1019D00069818A810E94BF0C2396E2E00C943F2625
:1019E000CF93DF93EC01E7E6F2E0438162818C81E3
:1019F0000E94D80C8C818F5F8C83DF91CF910895EA
:101A0000CF93DF93EC01EC81F0E0E95AFD4F449174
:101A1000E7E6F2E0628181810E94D80C8C818F5FC1
:101A20008C83DF91CF9108951F93CF93DF93182F6D
:101A3000D0E0C0E0893311F4C0E5D0E0812F0E94EE
:101A40008D0B209739F4812F0E94500BDF91CF919D
:101A50001F9108958FE99FE00197F1F700C0000002
:101A60002197EFCFB0E0A0E0E8E3FDE00C941B2667
:101A7000EC018AE0A82E2881222309F48FC02130AE
:101A8000C9F599818A81913021F422960E94140D22
:101A900005C0923029F422960E948D0B2196EBCF3F
:101AA000933021F422960E94500BF8CF943011F01D
:101AB0002196F4CF229630E020E0AE014F5F5F4FD9
:101AC0008053990B8A30910550F02150310930F341
:101AD0008FE99FE00197F1F700C00000F6CFA29ECA
:101AE000B001A39E700D11249C01260F371F898120
:101AF000EA01E3CFE22FF0E0EF5DFA4FB490822FDE
:101B000086958695869590E0FC01EF5EFA4FE4900D
:101B10002770F12C022E02C0F594E7940A94E2F7A4
:101B200031E0E322FF24FC01EF5FFA4FC490D12C97
:101B3000022E02C0D594C7940A94E2F731E0C32282
:101B4000DD24FC01EF50FB4F049110E002C015951D
:101B500007952A95E2F701701127E114F10419F0B5
:101B600081EE0E948D0BC114D10419F086EE0E9403
:101B70008D0B8B2D0E94140DC114D10419F086EE2B
:101B80000E94500BE114F10419F081EE0E94500BF9
:101B90000115110509F482CF8CE278CFCDB7DEB7FD
:101BA000EAE00C943726CF93DF93809109038350AA
:101BB00087FD14C090910703CCE0D0E0C91BD10988
:101BC000C45FDC4F90910603903108F06BC0883001
:101BD00009F453C0109296021092090380911901E2
:101BE00084FF3EC0809118018F3FD1F1C82F89300A
:101BF00008F0C8E0982F9C1B909318019091E20286
:101C000028E892279093E2028823E9F08091A602C7
:101C10009091A7022091A50226FF1CC1FC012C2F48
:101C2000A3EEB2E034913D9331962150D9F79C0157
:101C30002F5F3F4F8FEF8C0F820F932F911D90934B
:101C4000A7028093A6026C2F83EE92E00E94050308
:101C5000CC5FCC3019F08FEF80931801C09319013D
:101C600084E199B19C7031F48150D9F710920A0344
:101C700010920503DF91CF910895809196028931EA
:101C800008F0A8CFE82FF0E0EA58FD4F9E01285F4A
:101C90003F4F99919193C217D307D9F7885F8093EB
:101CA00096029ACF9D3209F0B9C0883009F094CFDE
:101CB00083EC8093E2028AE5809319011092A502D9
:101CC0008881807609F45CC0803249F48981833050
:101CD00009F446C030F4813041F18230C9F180E02E
:101CE0002FC08A3009F43FC08B3009F440C08930DE
:101CF000B1F78A819B818115924069F48C819D8125
:101D0000892B49F481E08093A4028E819F81909376
:101D1000A3028093A202888187FF7EC08E8190E813
:101D20009093A5028093180157CF8C819D81892BB8
:101D3000B1F688E992E09093A7028093A60288E02A
:101D40009F819111EFCF9E81981760F7892FEACF7D
:101D500087E992E09093A7028093A60281E0F0CFFA
:101D600087E191E0F7CF8B8180939702B8CF8C8188
:101D70009D81892B09F0B3CF8A8180931701AFCF62
:101D80002A811092EB02998191110AC01092EC0203
:101D90002BEE32E082E03093A7022093A602D0CF50
:101DA000953029F420930A032BEE32E0F4CF9630DD
:101DB000C9F49B81913051F4CE010E94690490E4F2
:101DC0009093A5028F3F09F4A6CFBACF9230A1F32A
:101DD000933091F3913281F3923271F390E49093C6
:101DE000A502AECF983089F0993019F42093A00263
:101DF000DBCF9A3071F09B30B9F69BE49093EE0202
:101E0000909323039093FA02CFCF20EA32E081E04F
:101E1000C2CF2BEE32E0FBCF8FEF81CF8091A502B6
:101E200087FFDACE8091A2029091A302892B71F0F4
:101E30008091A402813051F488818093A102109294
:101E4000A3021092A20210921801C6CE8EE18093D6
:101E50001901C2CEDC012C2FE3EEF2E03D9131936B
:101E60002150E1F7E4CE1F93CF93DF93E82F792F32
:101E7000162FEA01888184FF1CC0298188E8282761
:101E80002983CE010296DC012E2F372F512F5E0FB2
:101E9000F90121912D939F01452F4E1B1416C4F378
:101EA000612F0E9405031C5F1883DF91CF911F9162
:101EB00008958AE58883E5CFFF920F931F93CF9310
:101EC000DF93D82F8B01F42EC5E0D33099F0D430B6
:101ED000C1F0D13051F48091ED0284FF19C04DEE74
:101EE00052E06F2DC8010E94330FCDB7DEB7E5E099
:101EF0000C943C268091220384FF0AC042E253E006
:101F0000F0CF8091F90284FF03C049EF52E0E9CF9E
:101F10000E94D30D8FE19EE40197F1F700C000000D
:101F2000C15099F6E2CFB0E0A0E0E9E9FFE00C94FF
:101F30001D26E82E8B01EA016A0183E0D694C7943E
:101F40008A95E1F7F12CFC141D0468F0C77031F09C
:101F50004C2F50E0B8018E2D0E945C0FCDB7DEB73C
:101F6000E8E00C94392648E050E0B8018E2D0E943C
:101F70005C0F085F1F4FF394E6CF43E050E0BC01D5
:101F800083E00E94930F089546E050E0BC0183E097
:101F90000E94930F0895CF93DF93EC0148E050E047
:101FA000BC0181E00E94930F88E0FE01A8E9B2E045
:101FB00001900D928A95E1F7DF91CF910895CF932B
:101FC000C82F6FEF81116CE485E290E00E94D1266A
:101FD0006FEFC1116BEE86E290E00E94D1266FEFA9
:101FE000C11166E687E290E00E94D126CF91089564
:101FF000CF93DF93C1E8D0E060E0CE010E94D1260C
:102000002196C11584E0D807B9F7DF91CF910895E3
:102010001F93CF93DF93122F843088F4962F942B45
:1020200071F4C82FD0E0CC0FDD1F632FCE0189964D
:102030000E94D126612FCE018A960E94D126DF917F
:10204000CF911F91089585E290E00E94AD268C34D7
:1020500089F486E290E00E94AD268B3E59F487E237
:1020600090E00E94AD2691E0863609F090E0892F3D
:102070008170089580E0FCCF0F931F93CF93DF937F
:102080008430D0F4642BC1F4082F10E0000F111F2E
:10209000C80189960E94AD26C82FD0E0DC2FCC273E
:1020A000C8018A960E94AD269E01282BC901DF91A6
:1020B000CF911F910F91089590E080E0F8CF20918B
:1020C000A3013091A401232B91F4703F39F4603FB8
:1020D00071F48091B6019091B7010895762B39F48F
:1020E000843028F440E060E00E943C10089590E0C5
:1020F00080E00895CF92DF92FF920F931F93CF93CA
:10210000DF936C010091970180919001082BC3E04F
:10211000D0E010E0FC2EC8010C2E02C095958795EA
:102120000A94E2F780FD0CC02197A0F7F12C8F2DC7
:10213000DF91CF911F910F91FF90DF90CF90089585
:10214000B6018C2F0E945F100E94C707019761F3B0
:10215000EECFCF93DF93EC010E947A10BE010E9474
:102160005F100E94C707DF91CF910895FC01248181
:102170002223C1F0808191810E94A91092959F70C5
:10218000963091F058F4925F9F70923058F4803FEF
:1021900019F030F4883E30F481E008959A5FF4CF6E
:1021A000843FD1F380E00895883EB0F3813FD1F7BA
:1021B000F3CFA6E0B0E0EFEDF0E10C94222626E0AC
:1021C000FC01DE01119601900D922A95E1F7FC01C8
:1021D000258189819A81222399F0662389F00E94C2
:1021E0007A10182F682F89819A810E94C409698109
:1021F0007A81812F0E945F102696E3E00C943E26A0
:102200000E94AA09182FF3CFAAE0B0E0EAE0F1E1BA
:102210000C941D26E0901501F090160181E090E0ED
:10222000909316018093150110E087E5C82E83E096
:10223000D82E21E030E0111104C0F601859194916F
:102240009C0140E060E0812F0E9408101F5F143065
:1022500081F71A8219821C821B821E821D821886B7
:102260001F8288EC90E09A87898701E310E04AE0BA
:1022700050E0B801CE0101960E94F526065F1F4F7F
:1022800001381105A1F7F0921601E09215012A9686
:10229000E8E00C94392680E00E94DF0F60E088E2DD
:1022A00090E00E94D1260E9404110E94F80F81E064
:1022B0000E94DF0F08959B01883070F49AE0899F97
:1022C000B00111246F5C7F4F4AE050E0C9010E94C9
:1022D0009D2690E080E008958FEF9FEF0895AAE09B
:1022E000B0E0E5E7F1E10C9423269C0137552F3F40
:1022F000310509F068F4BE016F5F7F4F0E945B11EA
:10230000892B31F489859A852A96E2E00C943F2640
:1023100088EC90E0F9CFB0E0A0E0E1E9F1E10C94C5
:102320001D266B01C42FD22FFC0185818823A9F0C3
:10233000409359020E9417059093580280935702C8
:10234000C77081E001C0880FCA95EAF70E94620A4F
:10235000CDB7DEB7E8E00C9439261091590214137A
:1023600037C080915702909158020E9408057C0165
:10237000C6010E946F11E816F90650F5C0E2CD0FB4
:102380001D17C1F080E2810F883048F4177081E09A
:10239000012E01C0880F0A94EAF70E945B0AC83038
:1023A00048F481E09D2F977001C0880F9A95EAF755
:1023B0000E94620A802F0E94140DC83048F6D77020
:1023C00081E001C0880FDA95EAF70E945B0AC0CF6E
:1023D000C77081E001C0880FCA95EAF7F6CF609117
:1023E00067026695669570E04BE050E08AE091E008
:1023F0000E948926892B19F481E0809365020E944E
:1024000017059093A8018093A7010895B0E0A0E07C
:10241000ECE0F2E10C94192649015A016B017C01B0
:102420000E942F068401A4016A2D7B2D88E090E094
:102430000E94E32694014A2D5B2DB601C70100E2FC
:102440000E946526622F84E290E00E94D126CDB7DB
:10245000DEB7ECE00C943526A3E0B0E0E2E3F2E175
:102460000C941626F82E762EE42E622E909167029A
:1024700090FF2FC0E92FE695E695AE2FB0E0A55A64
:10248000BE4F8C91809364029C7F943031F59E0105
:102490002F5F3F4F8F2D0E943E064B8169818A81BD
:1024A0000E94BF0CF092680270926902E0926A0288
:1024B000662079F02091670260916B0270916C0246
:1024C0003F2D472D5E2D80916D0290916E020E94EE
:1024D00006122396EFE00C943226823019F4E09035
:1024E0006A02E0CF863019F4F0906802DBCF8930C1
:1024F000D9F38F30B9F6EF508E2F8170582EE695B4
:10250000F0E0EE5AFD4FE4910E2F10E08DEAC82E58
:1025100081E0D82EB12CA12C93E0892E912CC501FD
:10252000B4010E94DE258F2D511013C0860F960135
:102530004E2D672D0E943E06A00EB11E83E0C80EF0
:10254000D11C86EBC81681E0D80649F70E941A0C08
:10255000A9CF861BECCFE7E6F2E0438128E0421BDF
:1025600008F440E021E0628181810E942C120895EC
:10257000E7E6F2E0438128E0420F08F44FEF21E064
:10258000628181810E942C120895E7E6F2E0628167
:1025900028E0621B08F460E021E0438181810E9411
:1025A0002C120895E7E6F2E0628128E0620F08F459
:1025B0006FEF21E0438181810E942C120895E7E6AC
:1025C000F2E0818121E04381628188500E942C12D7
:1025D0000895E7E6F2E0818121E043816281885F2E
:1025E0000E942C12089580916B02882319F081506B
:1025F00080936B02209167023091680240916902DA
:1026000050916A0260916B0270916C0280916D0230
:1026100090916E020E940612089580916B028330A1
:1026200018F48F5F80936B022091670230916802EB
:102630004091690250916A0260916B0270916C0244
:1026400080916D0290916E020E9406120895909101
:10265000670290FF35C09370811133C094609093EE
:102660006702662391F020916702309168024091E1
:10267000690250916A0260916B0270916C028091C4
:102680006D0290916E020E9406126091670266953B
:10269000669570E04BE050E08AE091E00E94892668
:1026A000892BB9F01092650281E08093AA0120E0A5
:1026B00040916A0260916902809168020E942C1226
:1026C0000895893110F09066CACF880F880F982B33
:1026D000C6CF0E94EF11E8CF80916702869586955C
:1026E000815009F488E161E00E94271308958091E8
:1026F0006702869586958F5F893108F081E061E0F9
:102700000E94271308959091670290FF09C0969543
:102710009695981728F0961718F40E947713089545
:1027200061E00E9427130895E7E6F2E085E08083E8
:1027300011828FEF828383831482758125E030E0DC
:102740004FEF5FEF60E0868197810E940612089547
:10275000CF9310925B02C6E0E8E7F1E0DF018C2F37
:102760001D928A95E9F790E080E00E94620590E072
:1027700080E00E943D0510925A020E941309E1E593
:10278000F2E0DF011D92CA95E9F710924A02109219
:102790004B0210924C020E949A05CF9108950E941C
:1027A000A8132FEF84E39CE0215080409040E1F794
:1027B00000C0000088E198E00FB6F894A8958093D7
:1027C00060000FBE90936000FFCF9091990192FB43
:1027D000222720F9281779F080FB92F9909399012C
:1027E000609198017091990184E090E00E94EF2639
:1027F00082E00E940D0A089590E080E00E94BB26CE
:10280000863E9E4F19F40E942310089580E008959B
:10281000A4E0B0E0EEE0F4E10C9419266C01DC01D8
:1028200014968C91882309F4DBC161E0C6010E94F3
:10283000D9108C01F6018581882319F180915C0201
:1028400090915D020097E9F008171907D1F09927D8
:1028500074E0880F991F7A95E1F7FC01E153FE4F70
:1028600020812460208386539E4FDC010D931C93AE
:102870000E94650910925A0261E0C6010E94D910B7
:102880008C01F6018581882309F4B1C0980137577E
:102890002038310508F0ABC0F02EFFE0F01708F447
:1028A0008FC18FEF93E00E94AD26811189C101E8AD
:1028B00010E0F11036C019821A821B821C82992402
:1028C0009A9478013FEFE31AF30AC8010E94AD26FB
:1028D00089831A82882309F473C1813009F081C089
:1028E000580142E0A40EB11CC7010E94AD26E82E9B
:1028F0008A83882309F464C1C5010E94AD26F82E9D
:102900008FEF8E0D8330D8F4580153E0A50EB11C23
:10291000FB82FF2021F0CE0101960E94320D85013D
:10292000D0CF011524E0120709F44AC1C8010E9462
:10293000AD26811101C0FA940F5F1F4FBACF8BEF04
:102940008E0D833030F5C8010396FB825C01FF20B9
:1029500031F35801A4E0AA0EB11C0E94AD268C836D
:102960008823E9F28B819C818130BFEF9B0710F0B7
:10297000982F8827E6E0EE1631F0F7E0EF1631F0F9
:102980000E94AF1DCCCF0E94771DC9CF0E94F11CC1
:10299000C6CF24E0E212C3CF580134E0A30EB11C2D
:1029A000C80103960E94AD26FF2009F409C18823BF
:1029B00009F406C18150990B989E9001999E300DA3
:1029C00011244F2D4150550BCA01820F931F0197BF
:1029D00008F4A5CFAFE9BFE01197F1F700C0000000
:1029E000F6CFCE0101960E94320D570198CF7801A3
:1029F000E7E5FE1A81117AC0FFEFEF16F10411F03E
:102A000008F07AC060EC71E08E2D0E945B11892B7A
:102A100029F5C70154E0880F991F5A95E1F7FC0189
:102A2000E653FE4F2281213009F04DC02091C001B4
:102A30003091C101232B91F02091C2013091C3014B
:102A4000232B61F02091C4013091C5014091C60152
:102A50005091C701242B352B232BE9F1F801FF27D7
:102A600084E0EE0FFF1F8A95E1F79F0126533E4F4A
:102A70007901D60115968C91E153FE4F908180FB30
:102A800090F99083811142C0D7011C964D915C91C1
:102A90001D971E966D917C91C7010E949405F701C8
:102AA000858181FF62C0C7010E944C0980915C0250
:102AB00090915D020817190709F057C010925D0246
:102AC00010925C0252C0223049F62091C40130912C
:102AD000C501232B19F2FC01E153FE4F20812E7F0B
:102AE000208386539E4F0E946509B8CF2FEFE216D0
:102AF000F10409F008F4B2CFF801E851FC47E730DF
:102B0000F10598F5E15FF84D0C9406260E94170533
:102B100090939E0180939D01D70112968C911297FC
:102B20008F5F12968C93129780915A0290915B025C
:102B3000892B13968C93139780918F0114968C9305
:102B4000149716964D915C9117971E966D917C91F6
:102B5000C7010E949405F701858181FF26C090E09E
:102B600080E090935C0280935D02D60115968C9173
:102B7000882309F45AC410925902C80190578397C8
:102B800008F03DC484E090E00E94BB269093990138
:102B900080939801F801E150F047E232F10508F026
:102BA00047C0EA5EF84D0C940626902F812FD9CFAE
:102BB00006E221EE41EE6AE17CE7C6010E948B113C
:102BC00080918C01877061F0D60115968C918823D5
:102BD00039F08091990182FF03C082E00E940D0AC2
:102BE0002496ECE00C94352607E225EE45EE6BE1E9
:102BF0007CE7E3CF06E221EE40EE68E17CE7DDCF43
:102C000007E225EE44EE69E17CE7D7CF06E221EE4C
:102C100042EE6CE17CE7D1CF07E225EE46EE6DE1B6
:102C20007CE7CBCF08E221E045EE6EE17CE7C5CF43
:102C30008091980181608093980195C0809199015D
:102C40008860809399018FC0809198018260F3CF52
:102C5000809198018460EFCF809198018860EBCFDC
:102C6000809199018160EDCF809199018260E9CFD7
:102C7000809198018061DFCF809198018062DBCFE5
:102C8000809198018064D7CF0E94A8138091980109
:102C90008068D1CF809198018C60CDCF80919901CF
:102CA0008360CFCF809198018E7FC5CF80919901AD
:102CB000877FC7CF809198018D7FBDCF809198018C
:102CC0008B7FB9CF80919801877FB5CF8091990193
:102CD0008E7FB7CF809199018D7FB3CF809198017E
:102CE0008F7EA9CF809198018F7DA5CF809198018B
:102CF0008F7BA1CF0E94A813809198018F779BCFE3
:102D000080919801837F97CF809199018C7F99CF93
:102D10008091980182FB992790F921E0922790FBFE
:102D200082F990FB83F987CF80919901982F909534
:102D300091708E7F892B90FB81F983CF90919801C0
:102D4000892F8F7B96FF806476CF0E94A813909185
:102D50009801892F97FB87F980586DCF61E08EE04D
:102D600090E00E94D126609198017091990184E0D1
:102D700090E00E94EF260E94A81322CF60E0EFCFE0
:102D800090919801892F8F7E94FF806154CF90910C
:102D90009801892F8E7F90FF81604DCF909199018E
:102DA000892F877F93FF88604CCF80917E018111AE
:102DB0000FC089E2E8E7F1E02EE731E09191891355
:102DC00003C0DF0111971C922E173F07B9F72AC3E2
:102DD00085E3F0CF8091670280FF19C0282F2E7FF6
:102DE00020936702309168024091690250916A0213
:102DF00060916B0270916C0280916D0290916E02F5
:102E00000E940612109265020E941A0CD9CE8160AF
:102E10008093670261E0869586950E942713D0CE45
:102E20004CE653E167E773E10E942906C9CE47E704
:102E300053E16CE673E1F8CF4FED52E169EE72E1D8
:102E4000F3CF49EE52E16FED72E1EECF45EC52E186
:102E500062ED72E1E9CF42ED52E165EC72E1E4CF5F
:102E60004BEA52E168EB72E1DFCF48EB52E16BEAEB
:102E700072E1DACF43EF52E16DE073E1D5CF4DE07F
:102E800053E163EF72E1D0CF61E081E0C6CF65E04E
:102E900082E00E94831394CE68E086E0FACF6EE071
:102EA00089E0F7CF68E18FE0F4CF0737BCE71B0775
:102EB00009F462C00837ECE71E0709F461C0F601A7
:102EC000858100811181882309F48BC0C8010E948B
:102ED0007A10F82E682FC8010E94C409B8018F2DFE
:102EE0000E945F100E94C7078C01882ED60115969C
:102EF000EC9015971696BC90B2944FE0B422809156
:102F00008C01877009F1AE2CEE20F9F0812F807FC3
:102F1000803469F080E2800F8830B0F0812F807EAD
:102F2000803229F4B1E0B01778F4BB2069F08091C9
:102F3000990182FF09C082E00E940D0A80918C01F4
:102F40008770AA24A3948111A12C912E92943FE022
:102F50009322EBE0E91508F4A5C0E92DF0E0E85C68
:102F6000F84D0C94062681E00E94240A43E062E0BA
:102F700081E00E94E00924CE81E00E94000AF6CFA1
:102F800082E0FBCF0B355CE7150749F10C358CE788
:102F90001807D9F00A351C4709F091CF81E01CC011
:102FA0000E94A813AFEFB4E3ECE0A150B040E040C2
:102FB000E1F700C000000E94F30402CE6FEF7FEF44
:102FC00090E080E00E94EF265EC28091990182FB32
:102FD000882780F991E089270E94E51370CF80E06F
:102FE000FBCFC8010E94AA09F82E78CFF12FFF70FD
:102FF000FF2E107F19F0F29420EFF222EE20B9F0AC
:10300000FF2069F080E2800F883010F0811009C045
:1030100080915B02F82AF0925B020E941309802FD4
:103020003FC080915A02F82AF0925A02F6CF802FC0
:103030000E94500BFF20B1F1005E8F2D083010F080
:10304000811003C00E940C0902C00E9405090E9461
:10305000130928C0212F2F70F22E107F103219F083
:10306000F29490EFF922882059F031E0831609F4A8
:1030700087C0EE2009F493C0BB2009F441C0CFCF34
:103080008091990182FD38C0EE2079F1FF2039F05E
:1030900080915B02F82AF0925B020E94130980E0A3
:1030A0000E948D0BA92DA850BB0B149710F40E9401
:1030B0008705AA20A9F080918C0180FD11C0F6013E
:1030C00015828695869586950E94240AC6010E94DF
:1030D000081480918C018695869586950E94000A39
:1030E00060E0C6010E94D9107BCD80E00E94500BA9
:1030F000FF20C1F28F2DA6CFEE2069F1B11004C0E0
:103100008F2D0E94620ACECF41E0B41210C0109100
:103110008F018F2D8123F81629F20E9417059093B5
:103120008E0180938D01F12AF0928F01BBCF55E083
:10313000B512B8CF8F2D0E94620A8F2D0E94F00821
:10314000809189019F2D9823F91609F4ABCFF82AB5
:10315000F0928901A7CFB1100AC08F2D0E945B0A9F
:103160008F2D0E94F0088F2D0E9496099BCF81E041
:10317000B81298CF80915B028F2109F493CFEDCFE5
:10318000EE2029F095E09B1508F48CCFB9CFA4E090
:10319000AB1508F487CF8F2D0E945B0A83CFBB202D
:1031A000D1F3B9E38B1209C0EFEFF7EE23E0E15062
:1031B000F0402040E1F700C00000802F0E94500B3B
:1031C00071CF812F86958695837061F0813009F0EB
:1031D00069CFC8019370E11002C080E090E00E94C6
:1031E0003D0560CFC8019370E11002C080E090E01F
:1031F0000E94620557CF6E2D802F0E946C0A52CF1D
:10320000812F837089F5E1104DCF402F429546956F
:103210004770440F440F802F8F70042E01C0880F19
:103220000A94EAF7202F207104FF07C02FE030E056
:1032300001C0220F4A95EAF720951695169513704E
:10324000123069F050F430919001113029F0822B46
:1032500083230E94470A26CF832B822BFACF282B69
:10326000809190018227F5CF8695EE2011F0812F75
:103270008170882309F416CF402F429546954770F8
:10328000440F440F802F8F70042E01C0880F0A94C2
:10329000EAF7202F207104FF07C02FE030E001C0C3
:1032A000220F4A95EAF7209516951695137012305D
:1032B00069F050F430919701113029F0822B83236B
:1032C0000E94DD09EFCE832B822BFACF282B809131
:1032D00097018227F5CF1F70EE2029F0812F0E94E1
:1032E000240A802F0ECF802F0E945B0A812F0E941C
:1032F000000AD8CE802F32EF8316B1F1381570F066
:1033000040EF8416D1F051EF851691F0EE2009F4CC
:1033100066C0B11084CE812F8F712AC093EF8916B9
:1033200051F1A4EF8A12F2CF8091990182FD2FC052
:10333000812F8F71EE20D9F21BC0EE2081F0B4E016
:10334000BB1508F4AFCE1F7181E090E0012E01C0E3
:10335000880F0A94EAF7909197018927B1CFE5E0A9
:10336000EB1508F49FCEEFCF812F8F71E110BFCF07
:103370000E94240A97CE80E0EE2009F4A1CF1F71AD
:1033800081E0012E01C0880F0A94EAF799CFEE2060
:10339000C9F080918C018770843041F40E948F09BC
:1033A000812F8F710E94000AA12C7CCEF4E0FB15C6
:1033B000D8F31F71812F0E94240A63E0812F0E949D
:1033C000300AF2CF24E02B1530F40E948F0964E01C
:1033D000812F8F71F4CF81E00E940D0AE5CFBB20D1
:1033E00059F0893309F0E9CE3FEF47EE53E0315011
:1033F00040405040E1F7DFCE812F8F7178CF06310A
:10340000BCE71B0729F580915B028A7A91E009F4F9
:1034100090E090937E0169E2811165E386E791E097
:103420000E9423050E941309CBCB0631ECE71E074F
:1034300009F4BBCC80915B028272F801E052F8473C
:10344000E531F10508F031CDEC5BF84D0C94062622
:103450000737FCE71F0709F486CD82E008372CE721
:10346000120709F481CD0330FCE71F0709F4A6CD4C
:1034700008F088CD01153CE7130709F491CD013020
:103480001C4709F01CCD0E94CF13B0E0A0E0EBE494
:10349000FAE10C941E2680918801807F09F051C0CA
:1034A00080918701882309F44CC0E091E10287E014
:1034B000D82E8091A8028E1709F443C00E2F10E079
:1034C000ED9DF0011124E755FD4F84818823F1F132
:1034D000D09EE001D19ED00D1124FE01E755FD4F95
:1034E000918180918301981331C0908180918201F4
:1034F00098132CC08581811129C0E280F3808091CE
:10350000840190918501E81AF90A60E082E891E06F
:103510000E94D9100E946F11E816F906B8F4809144
:1035200088018F70806180938801C155DD4F88814B
:103530008F708061888382E891E00E9408140E9465
:10354000A009CDB7DEB7E7E00C943A26F801319632
:10355000E770AFCFA4E1B0E0E0EBFAE10C941626FF
:103560008C0186E0F801DE011F9601900D928A958C
:10357000E1F7F801F480E58082E8882E81E0982E5A
:103580008091860181112AC0F11003C0FF24F394B9
:103590001CC0EE20F9F0C8010E94B610F82E882356
:1035A000C9F087E0F801A2E8B1E001900D928A9598
:1035B000E1F780918601813031F480918201909110
:1035C00083010E94A9100E94451A8F2D6496EFE096
:1035D0000C943226C8010E940814D8CFC280D38030
:1035E000B090870180918401909185013601681A1D
:1035F000790ABB2009F4F9C05080A18060E082E81C
:1036000091E00E94D9100E946F116816790608F0A7
:10361000A5C0FF2009F4BACF80918801382F307FF0
:1036200020918301F8019181311158C0FE2C29139A
:1036300014C020918201908129130FC0E11047C06E
:103640008F7080618093880182E891E00E94081465
:1036500080918801F8018683B8CFE11038C06A2DC7
:10366000852D0E944A046A2D852D0E944A04E82E69
:103670008111ABCF5F86A88A8F8598890E94A91097
:10368000292F22952F70243058F49F70223088F013
:10369000992399F0F8019681907F79F4FE2C95CFCB
:1036A0002A5F2F70223068F0C8010E940814EB2CAA
:1036B000F5CF992311F0882389F3805E883070F369
:1036C000F3CF803F58F3815F833070F7E7CF80916D
:1036D0008801816080938801F12C77CF291315C070
:1036E000209182019081291310C0E1100EC08683C1
:1036F000C8010E94081487E0F801A2E8B1E0019037
:103700000D928A95E1F7FB2C60CFC8010E94B6109C
:10371000882309F45FCFEE2009F45CCF8091880103
:10372000803288F020918201309183013987288787
:10373000DB86CA86909186019C871D868E87CE0186
:1037400008960E94081487E0F801A2E8B1E0019011
:103750000D928A95E1F70E94451A18CF8091880151
:10376000982F907F51F482E891E00E94081487E03E
:10377000F40111928A95E9F7AFCFFF2009F406CF43
:1037800020918301F8019181291311C020918201B8
:10379000908129130CC0E1100AC08683C8010E94E1
:1037A000081487E0F40111928A95E9F7ACCFC801BB
:1037B0000E94B610882309F40DCFEE2009F40ACF39
:1037C00080918801803208F4BECF2091820130912F
:1037D00083013A832983DC82CB82909186019D8389
:1037E0001E828F83CE010196ACCF60E082E891E02B
:1037F0000E94D9100E946F116816790608F0B7CFA1
:10380000FF2009F4C3CEFE2CEE2009F4E3CE909104
:103810008301F801818198132DC0909182018081EC
:10382000981328C08091840190918501C81AD90A03
:10383000F8ECCF16D104A8F49091880190FD11C046
:10384000907F79F080918801F8018683903F31F074
:10385000982F907F905F8F70892B8683C8010E947C
:10386000081487E0F801A2E8B1E001900D928A9572
:10387000E1F7ABCEC8010E94B610811164CF8091F0
:103880008801816080938801C8010E9408149DCE40
:10389000ABE1B0E0EEE4FCE10C9422264E8B5F8BB2
:1038A000688F798F8A8F9B8F911110925A021D8A8F
:1038B00086E0FE017696DE011F9601900D928A95B4
:1038C000E1F78091990182FF1CC00E9417052091A9
:1038D0008A0130918B01821B930B8838934120F031
:1038E00080918C0182FF79C00E94170520918D0183
:1038F00030918E01821B930B8838934110F00E9407
:10390000E5088B89882329F061E0CE010F960E949B
:10391000D91087E0FE013F96DE01189601900D92C6
:103920008A95E1F7CE0108960E94AA1A81112AC051
:1039300087E0FE013896DE01119601900D928A957E
:10394000E1F78C858823F1F02091A80230E0C901CD
:103950000196877099274091E10248171906E9F00E
:1039600097E0929FD001939FB00D1124A755BD4FB2
:10397000FE01319601900D929A95E1F78093A8028D
:103980000E94A00917E08091E1029091A80289139A
:1039900012C06B96E3E00C943E260E94A81310928E
:1039A000A8021092E10287E0E2E8F1E0DF011D9257
:1039B0008A95E9F7E7CF819FC001112487559D4F74
:1039C0000E94AA1A882329F38091E10290E00196CF
:1039D000877099278093E102D6CF82E00E940D0A7A
:1039E00083CFA6E0B0E0E7EFFCE10C9421268C0148
:1039F0009093B7018093B601011580E21807C0F4D7
:103A0000802F0E94500BC8010E94E90B9801205E94
:103A100031092830310518F00115110531F40E94E3
:103A20005B0A2696E4E00C943D260E944A0AF9CFF0
:103A300080EF89838A830E9417058160682F9C83A9
:103A40008B8349815A817C8181E090E00E94481CEF
:103A5000E8CF0F931F93CF93DF938C01EB0160ECC2
:103A600071E08C2F0E945B11892B71F4DD27C85403
:103A7000DE4F8881F801128218828330F1F048F419
:103A8000813059F0823081F0DF91CF911F910F91F9
:103A900008958430B9F08530B9F78091C0019091D4
:103AA000C101009789F306C08091C2019091C301C2
:103AB000009799F30E94F11CE7CF8091C401909187
:103AC000C501F6CF8091C6019091C701009791F78B
:103AD0002091C0013091C1018091C2019091C30138
:103AE00021153105F1F2009729F7C901E3CFA6E0CE
:103AF000B0E0EDE7FDE10C9421268C019093B70135
:103B00008093B601011580E21807C0F4C8010E9435
:103B1000E90B9801205E31092830310518F00115B4
:103B2000110549F40E94620A802F0E948D0B26968F
:103B3000E4E00C943D260E94510AF6CF80EF898381
:103B40008A830E9417058160682F9C838B8349813B
:103B50005A817C8181E091E00E94481CE8CFCF939C
:103B6000DF93EC010E94771DCE010E94F11CDF91D2
:103B7000CF9108950F931F93CF93DF938C01862FDE
:103B800060EC71E00E945B11892BB1F4C091C0011F
:103B9000D091C101209781F0F8018281833051F4E6
:103BA000CE010E94AF1DCE010E94AF1DCE010E942A
:103BB000AF1D02C08430D0F7DF91CF911F910F91DC
:103BC00008950F931F93CF93DF938C01EB0160EC6B
:103BD00071E08C2F0E945B11892B09F05CC0FE0103
:103BE000FF27D80112968C911297E854FE4F81302E
:103BF000B9F415969C9192FF02C080830AC090FF91
:103C0000FCCF82E080838091C2019091C301009734
:103C1000B9F48091C0019091C1010097E1F110C009
:103C20008230B9F515968C9182FD28C080FD0BC0BD
:103C300083E080838091C4019091C501009701F1D8
:103C40000E94771D28C084E080838091C6019091F6
:103C5000C7010097A9F78091C0019091C101009719
:103C6000F9F00E94AF1D8091C2019091C3010097AD
:103C700039F78091C0019091C101E2CF85E0808346
:103C80008091C0019091C101009729F00E94AF1D61
:103C9000F0CF86E08083DF91CF911F910F9108953F
:103CA0008091C2019091C301B8CFA6E0B0E0EBE5EE
:103CB000FEE10C9421260E9417058C018091910150
:103CC000909192018017910781F019821A820E94C7
:103CD0001705682F49815A81792F80E090E00E9472
:103CE000481C10939201009391012696E4E00C94F5
:103CF0003D26CF9383B1809581709091960198175E
:103D000089F08093960181E0809395010E941705C8
:103D10009093940180939301C0E08C2FCF910895EC
:103D2000C0E014C0C0919501CC23B1F38091930100
:103D3000909194010E940805059770F38091960177
:103D40009091A201981761F38093A20110929501BE
:103D5000E4CFA8E0B0E0EFEAFEE10C94232666EEA3
:103D60007EEF90E080E00E94EF2660E082E090E04D
:103D70000E94D12681E08093900161E083E090E091
:103D80000E94D12660E074E184E090E00E94EF267A
:103D900060E086E090E00E94D1266FEF87E090E03F
:103DA0000E94D12640E050E0BA0188E090E00E94F5
:103DB000E32660E084E290E00E94D12660E087E1A3
:103DC00090E00E94D12660E08CE090E00E94D12635
:103DD00060E08DE090E00E94D12619821A821B8259
:103DE0001C821D821E821F82188648E050E068E116
:103DF00070E0CE0101960E94C12640E050E0BA0179
:103E000080E290E00E94E32680E00E94DF0F0E94A3
:103E10004B1140E050E0BA018FE090E00E94E326B1
:103E200040E050E0BA0183E190E00E94E32628964A
:103E3000E2E00C943F2678941F921FB61F92112443
:103E40008F939F93AF93BF9380917202909173026F
:103E5000A0917402B09175020196A11DB11D8093CD
:103E6000720290937302A0937402B0937502BF9193
:103E7000AF919F918F911F901FBE1F9018951F9219
:103E80001FB61F9211248F939F93AF93BF9380917E
:103E90007002811113C08091720290917302A091FF
:103EA0007402B09175024196A11DB11D80937202FA
:103EB00090937302A0937402B0937502BF91AF9177
:103EC0009F918F911F901FBE1F901895CDB7DEB7A1
:103ED00060970FB6F894DEBF0FBECDBF0E941705E6
:103EE0009093A6018093A50180E890E00FB6F89426
:103EF00080936100909361000FBE84ED96E09093F3
:103F00007501809374010E94110680916900886098
:103F100080936900E99A8BE48093EE0280932303F7
:103F20008093FA028AE58093ED02809322038093C6
:103F3000F902539A80E0815009F09CC2539878941A
:103F400082E084BD93E095BD9AEF97BD80936E00AB
:103F50000E942310811102C00E944B112098289AC0
:103F60001092A201109296010E94FC13811102C0CE
:103F70000E94A91E82E090E00E94AD2680939B01E2
:103F800084E090E00E94BB26909399018093980171
:103F90000E94791EBFEFE6E7F1E0B150E040F0404B
:103FA000E1F700C000000E94791E8091A20180FF0D
:103FB00008C06FEF7FEF90E080E00E94EF260E9444
:103FC000F30483E090E00E94AD260E94470A8091AE
:103FD0009A01811174C00E94FC13811104C00E94D7
:103FE000A91E0E94941388E090E00E94B5264B0120
:103FF0005C0184E290E00E94AD26282F30E040E092
:1040000050E060E070E080E090E000E20E944A262C
:10401000282939294A295B292093670230936802AD
:104020004093690250936A0260936B0270936C0232
:1040300080936D0290936E022C7F89F50E949413F9
:1040400088E090E00E94B5266B017C0184E290E05C
:104050000E94AD26282F30E040E050E060E070E0A4
:1040600080E090E00E944A26B22FA32FF42FE52F84
:104070005B0197018601BC29A12BFE29E32BB0939C
:104080006702A0936802F0936902E0936A0260936A
:104090006B02B0926C0280936D0290936E020E944C
:1040A0002F06109265028091670280FF05C060E0D4
:1040B000869586950E94271381E080939A0180E07F
:1040C00091E090936102809360022FEF40E782E0DD
:1040D000215040408040E1F700C000001AE0312E3E
:1040E000DE0111967D0100E2202E44244394512CE0
:1040F00092E3692E712C28E0A22EB12C8091080346
:1041000010917102882309F4BDC1109208030E9426
:1041100017059093A6018093A5011123E1F0109259
:1041200071020E94A8130E94870510926F0280916D
:104130006602882351F08091670281608093670254
:1041400060E0869586950E9427130E94EF1180916A
:104150007102811199C10E94D30D8091A002882320
:1041600009F459C18091ED0284FF55C10E94791E66
:1041700080919C011091A2018113B8C10E94551E2B
:1041800000915C0210915D020115110509F1809109
:104190009D0190919E010E9408056C01C8010E943A
:1041A0006F118C159D05A0F480915C0290915D02C9
:1041B0009927B4E0880F991FBA95E1F7FC01E15304
:1041C000FE4F208122FD04C086539E4F0E94650948
:1041D000809165028823D9F180916402E0916702A1
:1041E000E695E695E81BE093A901823009F0A0C1AD
:1041F000F0E0E259FF4FE4910E2F10E0A0E0CA2E4C
:10420000ADE0DA2E8091AA01882361F01092AA0114
:104210000E9417059093A8018093A7011092AC010A
:104220001092AB010E941705E091A701F091A8013F
:104230008E1B9F0B8F3F9F4750F40E0F1F1F109335
:10424000A8010093A70187EA91E0F601099586E0AD
:10425000E1E5F2E0D70101900D928A95E1F79090A7
:1042600052021091530200915402C0905502D09016
:10427000560210925302109254021092550210925C
:104280005602812F802B09F445C080914F029091F6
:1042900050020E9408059C0190914A02992309F45A
:1042A00088C425313105B0F19F3F19F09F5F90938D
:1042B0004A02112359F00E94E3059FEF11160CF4F6
:1042C00091E0899F802D112480935302002359F09F
:1042D0000E94E30591E010160CF09FEF899F802D5E
:1042E00011248093540280915302882399F0809086
:1042F0005402882079F00E940306882309F43AC109
:1043000080935302882D0E940306882309F434C148
:10431000809354028D2D8C2909F445C080914D0263
:1043200090914E020E9408059C0190914B029923A6
:1043300009F43AC421353105B0F19F3F19F09F5F70
:1043400090934B02CC2059F00E94C1059FEF1C14A2
:104350000CF491E0899F802D112480935502DD207B
:1043600059F00E94C10591E01D140CF09FEF899F48
:10437000802D11248093560280915502882399F054
:10438000C0905602CC2079F00E940306882309F4DD
:10439000F5C0809355028C2D0E940306882309F4F2
:1043A000EFC08093560280915202891117C080910C
:1043B0005302882311F0811311C02091540222234B
:1043C00011F020130BC090915602992311F09D110A
:1043D00005C030915502332309F4D4C30E949A05D5
:1043E00086E0F701A1E5B2E001900D928A95E1F730
:1043F0000E94870590919F01891769F080939F0122
:104400008FB7F894409172025091730260917402D8
:10441000709175028FBF0E94D30D8091A0028823F6
:1044200009F46CCE8091F90284FF68CE80919602E7
:10443000803209F063CE0091A3011091A401809114
:1044400076020115110509F49DC08E3F09F03BC1AC
:1044500080917702833020F08550833008F033C19B
:10446000E0917702EE3008F02EC1F0E0E75AF84D07
:104470000C940626A895AFE9BFE01197F1F700C0AC
:10448000000059CD112319F10E94570C0E94791E8A
:104490008091A201882309F431CEF8942AB15B9A65
:1044A000822F8C608AB99BB13CE093279BB9BFE710
:1044B000E8E3F1E0B150E040F040E1F700C0000077
:1044C0008BB183278BB92AB95B98789417CE8091EA
:1044D000A5019091A6010E940805069708F43BCE1D
:1044E00081E0809371020E94570C31CE812780FFBA
:1044F00011C01B861C860E941705682F8D879E871A
:1045000081E08F87912F9170988B4B855C857E859C
:104510000E94481C10939C018FB7F894409172023E
:104520005091730260917402709175028FBF28CE12
:10453000863059F4F0E0E559FF4FE4910E2F10E07A
:10454000F0EFCF2EFCE0DF2E5DCE00ED17E07EEE2B
:10455000C72E74E0D72E893009F054CEE695F0E0EE
:10456000E859FF4FE4910E2F10E0E5E9CE2EECE084
:10457000DE2E48CE81E0C4CE81E0CACE81E009CFF4
:1045800081E00FCF893009F442C138F5843009F455
:10459000C1C060F4823009F477C008F0A7C0813050
:1045A00009F46CC08FEF809376028DC0863009F4D9
:1045B000D1C008F4BFC0873009F4CFC0883091F76C
:1045C00080917702813809F416C108F006C180385D
:1045D00009F079C080916A0254C0803109F45EC14B
:1045E00008F040C08D3009F425C130F48C30D1F68C
:1045F00080E18093770267C08E3009F420C18F304C
:1046000089F68091150190911601892B09F45BC000
:10461000C0907902D12C4DE1C416D10408F053C0EA
:10462000009177021091780210270127102756E792
:10463000852E52E0952EC00ED11EC8018F579F4F78
:10464000C016D10609F43FC00F37A3E01A0720F4C3
:10465000F40164810E94D126FFEF8F1A9F0A0F5F39
:104660001F4FEBCF823109F41EC108F41AC1833108
:1046700009F446C18E3F09F095CFF2CE1092770231
:1046800089E0809378021FC080917702823009F41C
:104690007EC2833011F1813009F084CF2FB7F894B6
:1046A0006091720270917302809174029091750210
:1046B0002FBF0E940C26609378027093790280933A
:1046C0007A0290937B0240E250E066E772E084E079
:1046D0000E94930F1092960211CD80911501909136
:1046E0001601892B81F38091A201CBCF80917702B3
:1046F000823009F057CF60917802709179028091F1
:104700007A0290917B020E940C2688E290E00E943F
:10471000D126D9CF409179026091780280917702B9
:104720000E943C1098278927982790937B028093BA
:104730007A02C9CF20917A0230917B023227232757
:1047400032274091790260917802809177020E942D
:104750000810B9CF0E940411B6CF8091770281383A
:10476000D9F068F4803809F0AECF20E040917802AB
:1047700060916902809168020E942C12A4CF823855
:1047800039F1833809F09FCF20E040916A026091AF
:10479000790280917802F0CF60E0809178020E94E7
:1047A00027139091780280916702911108C08E7F43
:1047B00080936702109265020E941A0C84CF816078
:1047C0008093670260E0869586950E9427137BCFD1
:1047D0008091780280936B0276CF8238A9F083387B
:1047E00009F071CF8091680280937802809169020C
:1047F0008093790268CF8091670280FF03C086951D
:1048000086953FCF80E03DCF80916B023ACF2091DB
:104810006702309168024091690250916A0260918A
:104820006B0270916C0280916D0290916E020E94F9
:10483000061249CF83E0809377028FE722CF009161
:10484000790210E00D31110508F03DCFC0907702DC
:10485000D0907802DC24CD24DC2466E7862E62E04A
:10486000962E0A581D4FC6018F579F4F08151905E0
:1048700009F429CFFFE7CF16F3E0DF0660F40E94CA
:10488000AD26D40114968C93FFEFCF1ADF0A2FEFD9
:10489000821A920AE8CFF4011482F6CF0E94F80F30
:1048A00012CF84E0A6CE0091790210E00D311105FF
:1048B00008F009CFC0907702D0907802DC24CD2494
:1048C000DC2446E7842E42E0942E0A581D4FC60190
:1048D00089968016910609F4F6CE28E0C216D10416
:1048E00060F40E94AD26D40114968C93FFEFCF1A8A
:1048F000DF0A2FEF821A920AEACFF4011482F6CF70
:10490000C0907902D12C4DE1C416D10408F0DBCE61
:1049100000917702109178021027012710270830A4
:10492000110508F0D0CEC501801B910B8C159D059B
:1049300008F4C9CE36E7832E32E0932EC00ED11E86
:10494000C80189960C151D0509F4BDCE0830110566
:1049500028F4D40114966C910E94D126BFEF8B1AD3
:104960009B0A0F5F1F4FECCF88E0EAE1F1E0D7012F
:1049700001900D928A95E1F7E6E7F2E0DF01222D42
:104980001D922A95E9F786E08093760288E0F70188
:10499000AAE7B2E001900D928A95E1F794CE80EEFD
:1049A0008093760210927702109278021092790228
:1049B0008ACE80917902682F70E0762F66278091E9
:1049C0007802860F972F911D092E000CAA0BBB0BA6
:1049D00025E0880F991FAA1FBB1F2A95D1F7AC01AC
:1049E000BD01405E5F4F6F4F7F4F481759076A0701
:1049F0007B0708F468CE803E9105A105B10508F05B
:104A000062CE413E51056105710520F040EE50E057
:104A100060E070E0481B590BBC016E587F4F86E781
:104A200092E00E9480264FCE4EE150E06FEF70E0A2
:104A300088E792E00E949626809115018093760285
:104A40000093770240CE5092A4014092A30170924D
:104A5000A1016092A0010E94170535CE8091150139
:104A600080937602009377028091A0010ACE40E203
:104A700050E06FEF70E086E792E00E94962623CE2A
:104A800080917802813009F46CC0882309F460C0F9
:104A9000823009F018CE609179028AE0EAE7F2E00C
:104AA000D70101900D928A95E1F789819A8181154C
:104AB000FCE79F0741F42091150130911601232B4B
:104AC00011F490E080E09A8389838B819C81811529
:104AD0002CE7920741F42091150130911601232B08
:104AE00011F490E080E09C838B838D819E81811501
:104AF0004CE7940741F42091150130911601232BC6
:104B000011F490E080E09E838D838F8198858115DC
:104B1000ACE79A0741F42091150130911601232B3F
:104B200011F490E080E098878F838FEF683058F41D
:104B3000639DB00111246F5C7F4F4AE050E0C701D4
:104B40000E94F52680E0809376020E941106BBCD7C
:104B5000E6E7F2E0DF01222D1D922A95E9F788E0D1
:104B600022CD80917902D701E32D1D92EA95E9F7D4
:104B7000B7010E945B1180937602F701A7E7B2E0CC
:104B8000832D08CF822B892B09F42ACC27CC88E2ED
:104B900090E00E94AD261092780210927902109255
:104BA0007A0280937B028FCD2B30310508F0C7CB82
:104BB000FACB2B30310508F079CBACCBAA1BBB1B51
:104BC00051E107C0AA1FBB1FA617B70710F0A61B0D
:104BD000B70B881F991F5A95A9F780959095BC012E
:104BE000CD01089597FB072E16F4009407D077FDAA
:104BF00009D00E94DE2507FC05D03EF490958195F2
:104C00009F4F0895709561957F4F0895EE0FFF1F98
:104C10000590F491E02D0994692796276927782754
:104C20008727782708952F923F924F925F926F9235
:104C30007F928F929F92AF92BF92CF92DF92EF922C
:104C4000FF920F931F93CF93DF93CDB7DEB7CA1BAD
:104C5000DB0B0FB6F894DEBF0FBECDBF09942A88D8
:104C6000398848885F846E847D848C849B84AA8480
:104C7000B984C884DF80EE80FD800C811B81AA810D
:104C8000B981CE0FD11D0FB6F894DEBF0FBECDBFD8
:104C9000ED010895002E083090F0982F872F762F81
:104CA000652F542F432F322F22270850F4CF220F85
:104CB000331F441F551F661F771F881F991F0A95B2
:104CC000B2F7002D089597FD1094002E083098F04B
:104CD0000850232F342F452F562F672F782F892FD9
:104CE000912DF4CF1594979587957795679557955E
:104CF0004795379527950A95AAF71124002D089511
:104D0000FB01DC0102C005900D9241505040D8F7E4
:104D10000895FC014150504030F001900616D1F743
:104D20003197CF010895882799270895DC0101C0A4
:104D30006D9341505040E0F70895DC01CB01FC0138
:104D4000F999FECF06C0F2BDE1BDF89A319600B4E4
:104D50000D9241505040B8F70895F999FECF92BD99
:104D600081BDF89A992780B50895A6E1B0E044E0A6
:104D700050E00C949F26A8E1B0E042E050E00C9493
:104D80009F26DC01A40FB51F4150504048F0CB01D5
:104D9000840F951F2E910E94D22641505040D0F78B
:104DA0000895262FF999FECF92BD81BDF89A0197FB
:104DB00000B4021639F01FBA20BD0FB6F894FA9A63
:104DC000F99A0FBE08950396272F0E94D2260E94BB
:104DD000D126252F0E94D226242F0C94D22601966C
:104DE000272F0E94D2260C94D126DC01CB0103C0D0
:104DF0002D910E94002741505040D0F70895262F52
:104E0000F999FECF1FBA92BD81BD20BD0FB6F894AF
:104E1000FA9AF99A0FBE01960895F894FFCFFA1501
:104E20000016D815F41506160C1612165216C716CB
:104E30005A16241628165E162C1662166E1638168A
:104E4000C0163C167216401676169E1644167A1632
:104E5000A5164A16801688163016661634166A1677
:104E60004E1684169416AE16BE161E165616CE167E
:104E7000F617F6172A182A18E118FB1852185218B4
:104E800000196B197A197A19EA16101717171C17D7
:104E9000211726172B17301735173A173F174417C6
:104EA00047174C174F17E015E015E0155217E0159E
:104EB000E015B424CF24D9246323632314252325A8
:0E4EC0002E25632337256323632363234025B8
:104ECE00F004CB0FEF04C40FBD0F010F101112131E
:104EDE001415161718010001FF5A2D2052A2BF9566
:104EEE002E17818283E200E900EA00B500B600B712
:104EFE0000CD008301CC008A01920194012102238E
:104F0E000224022502260227022A02B300B4006FF1
:104F1E000070009F01CB019F02A00200010202025D
:104F2E00020606060909090909090F0F0F0F0F0FCF
:044F3E000F0F0F0F33
:00000001FF
